{
  "_format": "hh-sol-artifact-1",
  "contractName": "MultiSig",
  "sourceName": "contracts/Multisig.sol",
  "abi": [
    {
      "inputs": [
        {
          "internalType": "address[]",
          "name": "_owners",
          "type": "address[]"
        },
        {
          "internalType": "uint256",
          "name": "confirmNecessaryAmount",
          "type": "uint256"
        }
      ],
      "stateMutability": "nonpayable",
      "type": "constructor"
    },
    {
      "anonymous": false,
      "inputs": [
        {
          "indexed": false,
          "internalType": "uint256",
          "name": "txId",
          "type": "uint256"
        },
        {
          "indexed": false,
          "internalType": "address",
          "name": "signer",
          "type": "address"
        }
      ],
      "name": "confirmProposal",
      "type": "event"
    },
    {
      "anonymous": false,
      "inputs": [
        {
          "indexed": false,
          "internalType": "uint256",
          "name": "txId",
          "type": "uint256"
        },
        {
          "indexed": false,
          "internalType": "address",
          "name": "_to",
          "type": "address"
        },
        {
          "indexed": false,
          "internalType": "uint256",
          "name": "_amount",
          "type": "uint256"
        },
        {
          "indexed": false,
          "internalType": "uint256",
          "name": "_confirmationsAmount",
          "type": "uint256"
        },
        {
          "indexed": false,
          "internalType": "bool",
          "name": "_executed",
          "type": "bool"
        }
      ],
      "name": "createdProposal",
      "type": "event"
    },
    {
      "anonymous": false,
      "inputs": [
        {
          "indexed": false,
          "internalType": "uint256",
          "name": "txId",
          "type": "uint256"
        },
        {
          "indexed": false,
          "internalType": "address",
          "name": "_to",
          "type": "address"
        },
        {
          "indexed": false,
          "internalType": "uint256",
          "name": "_amount",
          "type": "uint256"
        },
        {
          "indexed": false,
          "internalType": "uint256",
          "name": "_confirmationsAmount",
          "type": "uint256"
        },
        {
          "indexed": false,
          "internalType": "bool",
          "name": "_executed",
          "type": "bool"
        }
      ],
      "name": "executeProposal",
      "type": "event"
    },
    {
      "anonymous": false,
      "inputs": [
        {
          "indexed": false,
          "internalType": "uint256",
          "name": "txId",
          "type": "uint256"
        },
        {
          "indexed": false,
          "internalType": "address",
          "name": "signer",
          "type": "address"
        }
      ],
      "name": "revokeProposal",
      "type": "event"
    },
    {
      "inputs": [
        {
          "internalType": "uint256",
          "name": "txId",
          "type": "uint256"
        }
      ],
      "name": "confirmProposalId",
      "outputs": [],
      "stateMutability": "nonpayable",
      "type": "function"
    },
    {
      "inputs": [],
      "name": "confirmationsNumber",
      "outputs": [
        {
          "internalType": "uint256",
          "name": "",
          "type": "uint256"
        }
      ],
      "stateMutability": "view",
      "type": "function"
    },
    {
      "inputs": [],
      "name": "contractBalance",
      "outputs": [
        {
          "internalType": "uint256",
          "name": "",
          "type": "uint256"
        }
      ],
      "stateMutability": "view",
      "type": "function"
    },
    {
      "inputs": [],
      "name": "deposit",
      "outputs": [],
      "stateMutability": "payable",
      "type": "function"
    },
    {
      "inputs": [
        {
          "internalType": "uint256",
          "name": "txId",
          "type": "uint256"
        }
      ],
      "name": "executeProposalId",
      "outputs": [],
      "stateMutability": "nonpayable",
      "type": "function"
    },
    {
      "inputs": [
        {
          "internalType": "address",
          "name": "",
          "type": "address"
        }
      ],
      "name": "isOwner",
      "outputs": [
        {
          "internalType": "bool",
          "name": "",
          "type": "bool"
        }
      ],
      "stateMutability": "view",
      "type": "function"
    },
    {
      "inputs": [
        {
          "internalType": "uint256",
          "name": "",
          "type": "uint256"
        }
      ],
      "name": "owners",
      "outputs": [
        {
          "internalType": "address",
          "name": "",
          "type": "address"
        }
      ],
      "stateMutability": "view",
      "type": "function"
    },
    {
      "inputs": [
        {
          "internalType": "uint256",
          "name": "txId",
          "type": "uint256"
        }
      ],
      "name": "revokeProposalId",
      "outputs": [],
      "stateMutability": "nonpayable",
      "type": "function"
    },
    {
      "inputs": [
        {
          "internalType": "address",
          "name": "to",
          "type": "address"
        },
        {
          "internalType": "uint256",
          "name": "amount",
          "type": "uint256"
        }
      ],
      "name": "submitProposal",
      "outputs": [],
      "stateMutability": "nonpayable",
      "type": "function"
    },
    {
      "inputs": [
        {
          "internalType": "uint256",
          "name": "",
          "type": "uint256"
        }
      ],
      "name": "transactionIdDetails",
      "outputs": [
        {
          "internalType": "address",
          "name": "to",
          "type": "address"
        },
        {
          "internalType": "uint256",
          "name": "amount",
          "type": "uint256"
        },
        {
          "internalType": "uint256",
          "name": "confirmations",
          "type": "uint256"
        },
        {
          "internalType": "bool",
          "name": "executed",
          "type": "bool"
        }
      ],
      "stateMutability": "view",
      "type": "function"
    },
    {
      "inputs": [
        {
          "internalType": "address",
          "name": "",
          "type": "address"
        },
        {
          "internalType": "uint256",
          "name": "",
          "type": "uint256"
        }
      ],
      "name": "voter",
      "outputs": [
        {
          "internalType": "bool",
          "name": "",
          "type": "bool"
        }
      ],
      "stateMutability": "view",
      "type": "function"
    },
    {
      "stateMutability": "payable",
      "type": "receive"
    }
  ],
  "bytecode": "0x60806040523480156200001157600080fd5b506040516200198c3803806200198c833981810160405281019062000037919062000360565b600082511180156200004a575081518111155b6200005457600080fd5b60005b8251811015620002805760008382815181106200009d577f4e487b7100000000000000000000000000000000000000000000000000000000600052603260045260246000fd5b60200260200101519050600073ffffffffffffffffffffffffffffffffffffffff168173ffffffffffffffffffffffffffffffffffffffff1614156200011a576040517f08c379a0000000000000000000000000000000000000000000000000000000008152600401620001119062000408565b60405180910390fd5b60001515600460008373ffffffffffffffffffffffffffffffffffffffff1673ffffffffffffffffffffffffffffffffffffffff16815260200190815260200160002060009054906101000a900460ff16151514620001b0576040517f08c379a0000000000000000000000000000000000000000000000000000000008152600401620001a7906200042a565b60405180910390fd5b6001600460008373ffffffffffffffffffffffffffffffffffffffff1673ffffffffffffffffffffffffffffffffffffffff16815260200190815260200160002060006101000a81548160ff0219169083151502179055506001819080600181540180825580915050600190039060005260206000200160009091909190916101000a81548173ffffffffffffffffffffffffffffffffffffffff021916908373ffffffffffffffffffffffffffffffffffffffff1602179055505080620002789062000529565b905062000057565b5080600281905550505062000692565b6000620002a7620002a18462000475565b6200044c565b90508083825260208201905082856020860282011115620002c757600080fd5b60005b85811015620002fb5781620002e0888262000305565b845260208401935060208301925050600181019050620002ca565b5050509392505050565b60008151905062000316816200065e565b92915050565b600082601f8301126200032e57600080fd5b81516200034084826020860162000290565b91505092915050565b6000815190506200035a8162000678565b92915050565b600080604083850312156200037457600080fd5b600083015167ffffffffffffffff8111156200038f57600080fd5b6200039d858286016200031c565b9250506020620003b08582860162000349565b9150509250929050565b6000620003c9602383620004a4565b9150620003d682620005e6565b604082019050919050565b6000620003f0601583620004a4565b9150620003fd8262000635565b602082019050919050565b600060208201905081810360008301526200042381620003ba565b9050919050565b600060208201905081810360008301526200044581620003e1565b9050919050565b6000620004586200046b565b9050620004668282620004f3565b919050565b6000604051905090565b600067ffffffffffffffff821115620004935762000492620005a6565b5b602082029050602081019050919050565b600082825260208201905092915050565b6000620004c282620004c9565b9050919050565b600073ffffffffffffffffffffffffffffffffffffffff82169050919050565b6000819050919050565b620004fe82620005d5565b810181811067ffffffffffffffff8211171562000520576200051f620005a6565b5b80604052505050565b60006200053682620004e9565b91507fffffffffffffffffffffffffffffffffffffffffffffffffffffffffffffffff8214156200056c576200056b62000577565b5b600182019050919050565b7f4e487b7100000000000000000000000000000000000000000000000000000000600052601160045260246000fd5b7f4e487b7100000000000000000000000000000000000000000000000000000000600052604160045260246000fd5b6000601f19601f8301169050919050565b7f3020416464726573732063616e277420626520736574746564206173206f776e60008201527f6572210000000000000000000000000000000000000000000000000000000000602082015250565b7f4f776e657220616c726561647920536574746564210000000000000000000000600082015250565b6200066981620004b5565b81146200067557600080fd5b50565b6200068381620004e9565b81146200068f57600080fd5b50565b6112ea80620006a26000396000f3fe6080604052600436106100a05760003560e01c80638b7afe2e116100645780638b7afe2e146101b5578063baeafb69146101e0578063c82228b814610220578063d0e30db014610249578063d2c056a614610253578063efa2823c1461027c576100a7565b8063025e7c27146100ac5780630691d262146100e9578063153ee9e0146101125780632c05e5851461014f5780632f54bf6e14610178576100a7565b366100a757005b600080fd5b3480156100b857600080fd5b506100d360048036038101906100ce9190610d48565b6102a7565b6040516100e09190610e93565b60405180910390f35b3480156100f557600080fd5b50610110600480360381019061010b9190610d48565b6102e6565b005b34801561011e57600080fd5b5061013960048036038101906101349190610d0c565b610510565b6040516101469190610ef3565b60405180910390f35b34801561015b57600080fd5b5061017660048036038101906101719190610d48565b61053f565b005b34801561018457600080fd5b5061019f600480360381019061019a9190610ce3565b610742565b6040516101ac9190610ef3565b60405180910390f35b3480156101c157600080fd5b506101ca610762565b6040516101d79190610fee565b60405180910390f35b3480156101ec57600080fd5b5061020760048036038101906102029190610d48565b61076a565b6040516102179493929190610eae565b60405180910390f35b34801561022c57600080fd5b5061024760048036038101906102429190610d48565b6107c7565b005b6102516109f1565b005b34801561025f57600080fd5b5061027a60048036038101906102759190610d0c565b610ac2565b005b34801561028857600080fd5b50610291610c8f565b60405161029e9190610fee565b60405180910390f35b600181815481106102b757600080fd5b906000526020600020016000915054906101000a900473ffffffffffffffffffffffffffffffffffffffff1681565b600460003373ffffffffffffffffffffffffffffffffffffffff1673ffffffffffffffffffffffffffffffffffffffff16815260200190815260200160002060009054906101000a900460ff16610372576040517f08c379a000000000000000000000000000000000000000000000000000000000815260040161036990610f4e565b60405180910390fd5b60001515600560003373ffffffffffffffffffffffffffffffffffffffff1673ffffffffffffffffffffffffffffffffffffffff168152602001908152602001600020600083815260200190815260200160002060009054906101000a900460ff16151514610416576040517f08c379a000000000000000000000000000000000000000000000000000000000815260040161040d90610fce565b60405180910390fd5b6000600360008381526020019081526020016000206002015490506002548110610475576040517f08c379a000000000000000000000000000000000000000000000000000000000815260040161046c90610f8e565b60405180910390fd5b600160036000848152602001908152602001600020600201600082825461049c919061101a565b925050819055506001600560003373ffffffffffffffffffffffffffffffffffffffff1673ffffffffffffffffffffffffffffffffffffffff168152602001908152602001600020600084815260200190815260200160002060006101000a81548160ff0219169083151502179055505050565b60056020528160005260406000206020528060005260406000206000915091509054906101000a900460ff1681565b600460003373ffffffffffffffffffffffffffffffffffffffff1673ffffffffffffffffffffffffffffffffffffffff16815260200190815260200160002060009054906101000a900460ff166105cb576040517f08c379a00000000000000000000000000000000000000000000000000000000081526004016105c290610f4e565b60405180910390fd5b60006003600083815260200190815260200160002060020154905060006003600084815260200190815260200160002060030160009054906101000a900460ff169050600254821015610653576040517f08c379a000000000000000000000000000000000000000000000000000000000815260040161064a90610f2e565b60405180910390fd5b600015158115151461069a576040517f08c379a000000000000000000000000000000000000000000000000000000000815260040161069190610f0e565b60405180910390fd5b60006003600085815260200190815260200160002060000160009054906101000a900473ffffffffffffffffffffffffffffffffffffffff1690506000600360008681526020019081526020016000206001015490508173ffffffffffffffffffffffffffffffffffffffff166108fc829081150290604051600060405180830381858888f19350505050158015610736573d6000803e3d6000fd5b50600192505050505050565b60046020528060005260406000206000915054906101000a900460ff1681565b600047905090565b60036020528060005260406000206000915090508060000160009054906101000a900473ffffffffffffffffffffffffffffffffffffffff16908060010154908060020154908060030160009054906101000a900460ff16905084565b600460003373ffffffffffffffffffffffffffffffffffffffff1673ffffffffffffffffffffffffffffffffffffffff16815260200190815260200160002060009054906101000a900460ff16610853576040517f08c379a000000000000000000000000000000000000000000000000000000000815260040161084a90610f4e565b60405180910390fd5b60011515600560003373ffffffffffffffffffffffffffffffffffffffff1673ffffffffffffffffffffffffffffffffffffffff168152602001908152602001600020600083815260200190815260200160002060009054906101000a900460ff161515146108f7576040517f08c379a00000000000000000000000000000000000000000000000000000000081526004016108ee90610fae565b60405180910390fd5b6000600360008381526020019081526020016000206002015490506002548110610956576040517f08c379a000000000000000000000000000000000000000000000000000000000815260040161094d90610f8e565b60405180910390fd5b600160036000848152602001908152602001600020600201600082825461097d9190611070565b925050819055506000600560003373ffffffffffffffffffffffffffffffffffffffff1673ffffffffffffffffffffffffffffffffffffffff168152602001908152602001600020600084815260200190815260200160002060006101000a81548160ff0219169083151502179055505050565b600460003373ffffffffffffffffffffffffffffffffffffffff1673ffffffffffffffffffffffffffffffffffffffff16815260200190815260200160002060009054906101000a900460ff16610a7d576040517f08c379a0000000000000000000000000000000000000000000000000000000008152600401610a7490610f4e565b60405180910390fd5b60003411610ac0576040517f08c379a0000000000000000000000000000000000000000000000000000000008152600401610ab790610f6e565b60405180910390fd5b565b600460003373ffffffffffffffffffffffffffffffffffffffff1673ffffffffffffffffffffffffffffffffffffffff16815260200190815260200160002060009054906101000a900460ff16610b4e576040517f08c379a0000000000000000000000000000000000000000000000000000000008152600401610b4590610f4e565b60405180910390fd5b610b586000610c95565b6000610b646000610cab565b9050816003600083815260200190815260200160002060010181905550826003600083815260200190815260200160002060000160006101000a81548173ffffffffffffffffffffffffffffffffffffffff021916908373ffffffffffffffffffffffffffffffffffffffff1602179055506001600360008381526020019081526020016000206002018190555060006003600083815260200190815260200160002060030160006101000a81548160ff0219169083151502179055506001600560003373ffffffffffffffffffffffffffffffffffffffff1673ffffffffffffffffffffffffffffffffffffffff168152602001908152602001600020600083815260200190815260200160002060006101000a81548160ff021916908315150217905550505050565b60025481565b6001816000016000828254019250508190555050565b600081600001549050919050565b600081359050610cc881611286565b92915050565b600081359050610cdd8161129d565b92915050565b600060208284031215610cf557600080fd5b6000610d0384828501610cb9565b91505092915050565b60008060408385031215610d1f57600080fd5b6000610d2d85828601610cb9565b9250506020610d3e85828601610cce565b9150509250929050565b600060208284031215610d5a57600080fd5b6000610d6884828501610cce565b91505092915050565b610d7a816110a4565b82525050565b610d89816110b6565b82525050565b6000610d9c601a83611009565b9150610da78261111b565b602082019050919050565b6000610dbf602583611009565b9150610dca82611144565b604082019050919050565b6000610de2601083611009565b9150610ded82611193565b602082019050919050565b6000610e05601683611009565b9150610e10826111bc565b602082019050919050565b6000610e28601e83611009565b9150610e33826111e5565b602082019050919050565b6000610e4b602383611009565b9150610e568261120e565b604082019050919050565b6000610e6e601f83611009565b9150610e798261125d565b602082019050919050565b610e8d816110e2565b82525050565b6000602082019050610ea86000830184610d71565b92915050565b6000608082019050610ec36000830187610d71565b610ed06020830186610e84565b610edd6040830185610e84565b610eea6060830184610d80565b95945050505050565b6000602082019050610f086000830184610d80565b92915050565b60006020820190508181036000830152610f2781610d8f565b9050919050565b60006020820190508181036000830152610f4781610db2565b9050919050565b60006020820190508181036000830152610f6781610dd5565b9050919050565b60006020820190508181036000830152610f8781610df8565b9050919050565b60006020820190508181036000830152610fa781610e1b565b9050919050565b60006020820190508181036000830152610fc781610e3e565b9050919050565b60006020820190508181036000830152610fe781610e61565b9050919050565b60006020820190506110036000830184610e84565b92915050565b600082825260208201905092915050565b6000611025826110e2565b9150611030836110e2565b9250827fffffffffffffffffffffffffffffffffffffffffffffffffffffffffffffffff03821115611065576110646110ec565b5b828201905092915050565b600061107b826110e2565b9150611086836110e2565b925082821015611099576110986110ec565b5b828203905092915050565b60006110af826110c2565b9050919050565b60008115159050919050565b600073ffffffffffffffffffffffffffffffffffffffff82169050919050565b6000819050919050565b7f4e487b7100000000000000000000000000000000000000000000000000000000600052601160045260246000fd5b7f416c72656164792065786563757465642070726f706f73616c21000000000000600082015250565b7f4e6f74206e656365737361727920616d6f756e74206f6620636f6e6669726d6160008201527f74696f6e73000000000000000000000000000000000000000000000000000000602082015250565b7f4e6f206f6e65206f66206f776e65727300000000000000000000000000000000600082015250565b7f43616e2774206465706f73697420302065746865722100000000000000000000600082015250565b7f436f6e6669726d6174696f6e7320616c72656164792072656163686564210000600082015250565b7f596f75206469646e277420766f746520746f20636f6e6669726d2070726f706f60008201527f73616c0000000000000000000000000000000000000000000000000000000000602082015250565b7f416c726561647920566f746520666f7220746869732070726f706f73616c2100600082015250565b61128f816110a4565b811461129a57600080fd5b50565b6112a6816110e2565b81146112b157600080fd5b5056fea2646970667358221220c076188922c27fe92ab6fff964744fca29041287f714e9c5fe92255d1c7cbc6264736f6c63430008040033",
  "linkReferences": {},
  "deployedLinkReferences": {}
}